S01E0000526F61645363616E6E657244617461416371756972652E7372656372
S1130000282B00202D0100002901000029010000F7
S113001000000000000000000000000000000000DC
S1130020000000000000000000000000250D00009A
S11300300000000000000000F10D0000350E00007B
S11300402901000029010000290100002901000004
S113005029010000290100002901000029010000F4
S113006029010000290100002901000029010000E4
S113007029010000890A000029010000290100006B
S113008029010000290100002901000029010000C4
S113009029010000290100002901000029010000B4
S11300A029010000290100002901000029010000A4
S11300B029010000290100002901000010B5064CA7
S11300C02378002B07D1054B002B02D0044800E015
S11300D000BF0123237010BD1000002000000000A9
S11300E054250000084B10B5002B03D007490848DD
S11300F000E000BF07480368002B00D110BD064B89
S1130100002BFBD09847F9E7000000001400002002
S113011054250000542500000000000010B5014BD8
S1130120984710BD65020000FEE7000010B5174AAD
S1130130174B9A4211D01A00164B9A420DD2164A06
S113014003339B1A9B0801339B00002210480F497C
S11301508C58845004329A42FAD1104A104B9A4275
S11301600AD2D3430E495B1803218B4304339B18F3
S1130170002102C29342FCD10A4AFF210A4B8B435D
S113018093600A4B98470A4B9847FEE754250000B2
S113019000000020100000200400002010000020B7
S11301A0280B002000ED00E000000000CD2300003B
S11301B05D0B0000064B4021DC2299500331143AB8
S11301C09950044AD36923390B43D3617047C0461D
S11301D0001C00400008004030B58223DB05CA2221
S11301E0995C0125A94301242143C9B29954B5203E
S11301F0195CBB3A91430C3A11431954CB215A5C14
S1130200AA432243D2B25A541A5CBC390A4021315F
S11302100A431A5430BD000010B582B0064B98470B
S1130220002300931033054A05490648064CA047AD
S1130230064B984702B010BDB50100002C00002009
S113024000140042D80A002015050000D90100005E
S113025010B50248024B984710BDC04610E000E0BC
S1130260E902000010B5034B9847034B9847034B32
S1130270984710BD8D0700001902000051020000CC
S11302807047000010B582B0094C0A4A01212000D1
S1130290094B984701A92000084B98472000084BB8
S11302A098470C2207490198074B984702B010BDA4
S11302B0D80A00208102000005060000D9050000CC
S11302C0AD050000000000201D030000EFF31083C3
S11302D0036072B6BFF35F8F7047BFF35F8F03682D
S11302E083F310887047000010B5024B1860024B6E
S11302F0984710BD3C000020F50A000010B5044BDF
S11303001C68044B984701002000034B984710BD1C
S11303103C00002085070000090B000070B50600B2
S11303200C00150000280DD00800431E9841C0B2EF
S113033034220549054B984733682A0021003000D0
S1130340984770BD0020F3E7382400007D060000C4
S113035010B5083800230363436A002B00D0984784
S113036010BD10B5083800230363C36A002B00D006
S1130370984710BD10B504002C30044B9847236AED
S1130380083C002B01D02000984710BD2107000035
S113039070B504000E00150000281DD000291DD0E2
S11303A01000431E98413C22FF320F490F4B9847DF
S11303B04423E25A0833E35A9A4211D1A6644C23E7
S11303C0E5520022083BE252433B236320000830FD
S11303D0074B9847280070BD0020E4E70020E2E7BF
S11303E01C204042F7E7C0464C2400007D06000074
S11303F0050A000070B5040001000839838F4C22FF
S11304008A5A9A420CD00A00896C5D1C4420155209
S1130410C95C2000044B98472000044B984770BDEA
S1130420034B9847FBE7C046FD090000050A00009E
S11304300D0A0000F0B5CE46474680B585B00500EC
S11304400E001700002815D0002913D0002A2AD145
S1130450AC22520029490020294B984703A8294B74
S1130460984728003430284B984703A8274B9847CF
S113047000253CE0AC22520020490020204B984744
S113048003A8204B98473435280001951E4B984704
S1130490804603A81D4B984700254346002B26D0D1
S11304A0002F16D123E0AC22520014490120144B32
S11304B0984703A8134B9847343528000195124BED
S11304C09847804603A8114B984743460025002BC4
S11304D00DD000240E4B9946651CADB2311901981C
S11304E0C8470134444502D2A3B29F42F4D828003D
S11304F005B00CBC90469946F0BDC0464C240000A3
S11305007D060000CD02000061070000DB02000050
S1130510D9060000F8B504000D0016001F000028DD
S113052026D0002926D0002A26D01800431E984140
S11305303A221449144B9847200034303A003100D1
S1130540124B9847002819D1200008302900104B7D
S1130550984700280BD10F4B63600F4B23600F4B60
S1130560A3600F4BE3600F4B23610F4B6361F8BD36
S11305700020DDE70020DBE70020D9E70D20404222
S1130580F5E7C0464C2400007D0600008506000007
S1130590710900003504000091030000F503000018
S11305A075030000510300006303000010B504004C
S11305B0431E9841C0B261220449054B984720006C
S11305C00830044B9847002010BDC0464C2400005E
S11305D07D060000E909000070B504000D00002844
S11305E00AD00800431E9841C0B277220349044B45
S11305F098472C60002070BD0020F6E74C240000D2
S11306007D06000070B505000E001400431E9841DD
S1130610C0B283221649174B9847012E11D0002EE1
S113062004D0022E18D00D20404209E0AC62621EB4
S11306309441E2B22800083001210F4B9847002072
S113064070BD6C62621E9441E2B22800083002213F
S1130650094B98470020F3E7EC62621E9441E2B232
S1130660280008300321044B98470020E8E7C046DF
S11306704C2400007D060000150A0000002800D16B
S113068000BE704770B504000E00150000280BD0A2
S1130690002918D00120002A07D128220C49002063
S11306A00C4B98476B1E07E0002028220849094B91
S11306B098476B1E2B4208D163600023A360E3605C
S11306C02660002070BD0020EFE70D204042F9E7CE
S11306D06C2400007D06000070B504000D000028A5
S11306E015D00800431E9841C0B240220A490B4B62
S11306F09847A368E2689A420BD062681340226864
S1130700D35C2B70A3680133A360002070BD00206C
S1130710EBE70A204042F9E76C2400007D06000064
S113072070B504000D00431E9841C0B251220A491D
S11307300A4B98476368E26813402268D554E3681B
S11307406168A2689A1A8A4201D9591AA1600133D0
S1130750E360002070BDC0466C2400007D060000EC
S113076010B50400431E9841C0B267220349044BEC
S11307709847E068A368C01A10BDC0466C24000006
S11307807D060000FA231B015843704710B5084B3F
S11307905A685A60074B9847074B9847074B984746
S11307A0074B9847FF20074B9847074B984710BDC6
S11307B0004000410D080000250800000108000069
S11307C065080000DD070000CD0700009022D20577
S11307D0137802218B43137070470000C30707D5B9
S11307E0044A054B1A621900044A4B681342FCD1AF
S11307F07047C04606010100001C0040FD070000D0
S11308000122014B1A71704700080040044BDA6959
S1130810F82149010A40DA6101221A617047C04691
S1130820001400400E4B02221A7509325A75190041
S1130830073A8B691A42FCD1094904228B691A428E
S1130840FCD10722064B9A7519000932CB681A426B
S1130850FCD0034A137D80210B4313757047C046B7
S1130860001000407047000030B589B00C4B6A4658
S113087032CB32C232CB32C212CB12C2009B834281
S11308800BD001239A0069465258824206D00133A4
S1130890082BF7D1002009B030BD0023D8B2FAE705
S11308A09024000010B58623DB05984207D0084B3E
S11308B0984204D0074B98470930C0B210BDBD23FD
S11308C01B069C466044800A0930C0B2F6E7C04665
S11308D0000400436908000010B504001E4B98474B
S11308E0042804D01D4A1E4900201E4B9847E36982
S11308F0DB0718D40322E3691A42FCD123689B075F
S11309000BD523680222934323600132E3691A4220
S1130910FCD10222E3691A42FCD10523236003229D
S1130920E3691A42FCD10122E3691A42FCD10E4B5D
S113093023600322E3691A42FCD1C0239B02636053
S11309400722E3691A42FCD1084BA3810023A37355
S11309503022A354002010BD690800006102000089
S1130960C82400007D060000040031402BF6FFFF80
S113097070B506000C00431E9841C0B2C42213494E
S1130980134B98472000134B9847051E01D02800AD
S113099070BDB461104B9C4214D020000F4B98479B
S11309A00306F4D41F2318401E3B83400C4A8021C5
S11309B05350BFF34F8FBFF36F8F0131FF3153504B
S11309C01360E4E7074B1E60E7E7C046C824000055
S11309D07D060000D908000000140042A5080000AC
S11309E000E100E0400000208269136802210B430B
S11309F013600131D3691942FCD17047836989B20C
S1130A0019857047836901229A75704783690222A8
S1130A109A75704770B504000D001600431E984186
S1130A20C0B2164A1649174B984702232A009A4324
S1130A300ED1A369002E05D101221A75A3690132D2
S1130A401A7570BD01229A75A36901329A75F8E787
S1130A50012D07D0032DF4D1A369002E0BD08022E1
S1130A609A75EEE7A369002E02D104221A75E8E70D
S1130A7004229A75E5E780221A75E2E72102000054
S1130A80C82400007D06000010B5194B186884695D
S1130A90237EDB0702D5A37DDB070FD4237E9B07D0
S1130AA002D5A37D9B070ED4237E5B0715D5628BED
S1130AB037231A420CD04833638310BD01232375B6
S1130AC003689847F9E70223237583689847F4E796
S1130AD0218DC9B243689847EFE7237EDB09ECD048
S1130AE080232376C3689847638B9BB26383E4E7D0
S1130AF040000020024B034A5A6005221A607047E6
S1130B0010E000E0FFFFFF0070B50B0E5E1EF6B2B2
S1130B10002B13D034000E4A0E4D80204002556045
S1130B20956013680342FCD0013CE4B2FF2CF6D17B
S1130B303306F61A084B9C4661447118044B5960FD
S1130B4099601900802252020B681342FCD070BDD8
S1130B5010E000E0FFFFFF00010000FF70B5064B4E
S1130B609847064B9847064EFA25AD00054CB0470A
S1130B702800A047FBE7C0461D010000CD0B000084
S1130B8085020000FD020000F8B50B4D0B4C0C4F24
S1130B9003E0FA2040000B4B9847012149422868A2
S1130BA0A0470028F5D0B847034B1868002300225B
S1130BB00021054EB047ECE7440000205515000025
S1130BC085020000491C00007911000010B582B0B4
S1130BD001200C4B98470C4B1860002800D1FEE70D
S1130BE0002301930133009300232022074908487E
S1130BF0084CA047012800D0FEE7074B984702B0F5
S1130C0010BDC0460513000044000020E424000089
S1130C10890B0000FD170000C91900000300083308
S1130C204360012252428260C36003610023036077
S1130C30704700230361704743684B609A688A6079
S1130C409A685160996008610368013303607047D2
S1130C5030B50C6802000832631C02D1026904E05A
S1130C601A0053681D68AC42FAD253684B6099600D
S1130C708A605160086103680133036030BD036911
S1130C804268816891608268416851605A68904204
S1130C9006D0002202611A68013A1A601868704787
S1130CA082685A60F5E7000082B000230193064B86
S1130CB01B68013301D072B6FEE772B6019B002BAC
S1130CC0FCD002B07047C0460C00002000000000B9
S1130CD00B4A13681868203080F30988022080F3D7
S1130CE01488BFF36F8F3FBCAE4608BC04BC62B629
S1130CF01847C046C046C046C046C046C046C04667
S1130D00480A002010B5031F802464041C60043BBF
S1130D101960043B02491960143B1A60403810BD45
S1130D20A90C00007047000010B50F4B1968FF2292
S1130D3012040A431A601968FF2212060A431A6051
S1130D400A4A002313600A490B600A480A490860EA
S1130D5007211160094A1360094B9847094B9847CA
S1130D60094B9847002010BD20ED00E010E000E0A2
S1130D7018E000E09F0F000014E000E00C000020E9
S1130D80D10C0000891C0000A90C0000802252052F
S1130D90034B1A60BFF34F8FBFF36F8F7047C0468A
S1130DA004ED00E072B6044A136801331360BFF324
S1130DB04F8FBFF36F8F70470C000020064B1B68EA
S1130DC0002B01D172B6FEE7013B034A1360002BEE
S1130DD000D162B67047C0460C000020EFF31080CB
S1130DE072B6704780F3108870470000000000005E
S1130DF0EFF309800E4B1A6820381060F0C04446A7
S1130E004D4656465F46F0C008B572B600F03CFF4A
S1130E1062B60CBC116808681030F0C8A046A94638
S1130E20B246BB4680F309882038F0C81847C0464C
S1130E30480A002010B5074B98470400064B984712
S1130E40002803D080225205044B1A602000044B72
S1130E50984710BDDD0D00004D1A000004ED00E0C0
S1130E60E50D000070B50400430702D007239C433E
S1130E700834114B9847114B1B68002B10D0104BB2
S1130E805B6EE4180F4A944211D8A34211D20B4A64
S1130E901568ED180A4B5C660B4B9847280070BD2B
S1130EA0064A13000C3307218B431360E7E7002540
S1130EB0F2E70025F0E7C046311A000048000020A0
S1130EC04809002057090000591B0000002801D0E0
S1130ED072B6FEE77047000010B50400034B984754
S1130EE0A46B034B98476042604110BDA50D000000
S1130EF0BD0D000070B504001600856B026C002A5D
S1130F000BD100202368834204D16068164B9847B4
S1130F10002363600135A56370BD002E0ED1806887
S1130F20124B9847A368226C94466344A360002044
S1130F3062689342EED32368A360EBE7C0680B4B6F
S1130F409847236C5B42E268D218E26021688A42C7
S1130F5003D2626894466344E3600020022ED9D130
S1130F608542D7D0013DD5E7311F0000152400008C
S1130F7070B582B001900A00846C002C05D0A16B7E
S1130F80E36B994203D372B6FEE772B6FEE7A16B38
S1130F9000268B4202D8300002B070BD4523E55CC8
S1130FA06DB201A920000A4B984706006B1C0AD1B8
S1130FB0636A002BEFD020002430064B98470028AA
S1130FC0E9D00126E7E701356DB24523E554E2E7B0
S1130FD0F50E0000791D000010B50C00026C002A0B
S1130FE00BD0C3689B18C36041688B4201D303686C
S1130FF0C360C1682000014B984710BD1524000050
S1131000F8B50700254B98474523FC5C64B2002CD7
S11310101CDD234E234D0BE07B6A002B16D03800D9
S11310202430A84700280ED1013C64B2002C0DD016
S1131030BB6C002BF0D000213800B0470028F3D05F
S1131040194B9847F0E7184B9847EDE7FF224523E3
S1131050FA54164B9847114B98474423FC5C64B2EE
S1131060002C14DD3B69002B11D03D0010350D4ED2
S113107006E0013C64B2002C09D03B69002B06D089
S11310802800B0470028F4D0074B9847F1E7FF2227
S11310904423FA54054B9847F8BDC046A50D0000FB
S11310A0710F0000791D0000711E0000BD0D0000CD
S11310B070B504000D00002821D0174B9847226812
S11310C0216CE36B4B43D01860600020A063A260E6
S11310D05B1AD318E360FF234422A3540132A354C0
S11310E0002D11D12369002B05D0200010300B4BAB
S11310F09847002805D10A4B9847012070BD72B665
S1131100FEE7084B9847F6E720001030064DA84745
S113111020002430A847EEE7A50D0000791D00004B
S1131120BD0D00008D0D00001D0C0000F8B506007B
S11311300D001700002801D172B6FEE708007043C5
S113114054300B4B9847041E10D0002D03D00300DD
S11311505433036000E02060E6632564012120002D
S1131160044B98475023E7540023A3642000F8BDA0
S1131170650E0000B1100000F0B5CE46474680B5BC
S113118085B004000F0001921D0000280CD0002936
S11311900CD0022D0FD04E4B9847002810D1019B44
S11311A0002B11D072B6FEE772B6FEE7036C002B7B
S11311B0EFD072B6FEE7E36B012BECD072B6FEE71C
S11311C00026444B98464CE00026FAE72A003900F2
S11311D02000414B9847A36C002B0FD0290020001E
S11311E03E4B9847002801D03D4B98473D4B9847CC
S11311F0012005B00CBC90469946F0BD636A002BF3
S113120008D020002430384B98470028EED0344BC7
S11312109847EBE70028E9D0314B9847E6E7314B94
S113122098470020E5E72F4B984701A902A82F4BC8
S11312309847002844D1274B9847A36B9946E66BFF
S1131240284B9847B14535D1200010300199284BDF
S113125098472000274B9847274B9847002826D0CB
S11312600126C047A36BE26B9342AFD3022DADD0EE
S1131270019B002BD3D0002E02D102A81F4B98470C
S1131280184B98471E4B9847124B98474423E35CEE
S11312905BB2013302D100224423E2544523E35CD0
S11312A05BB20133BFD100224523E254BBE70C4BB0
S11312B09847D5E720000F4B98470F4B9847CFE747
S11312C020000C4B98470C4B9847002091E7C046F0
S11312D07D1E0000A50D0000F50E0000710F00003A
S11312E08D0D0000BD0D0000791D0000051E0000DD
S11312F0151D000001100000591B0000F51D000021
S1131300311A000070B5020000210120064B9847F5
S1131310041E07D0002343600360C3600022002141
S1131320024DA847200070BD2D1100007911000066
S1131330F0B583B00400019116001D00002812D0FE
S1131340019B002B11D0022D14D0284B98470090FC
S1131350A36BE26B9A422FD800250098244B984740
S1131360280003B0F0BD72B6FEE7036C002BEAD090
S113137072B6FEE7E36B012B1AD072B6FEE7636A1E
S11313800125002BE9D0200024301A4B984700286F
S1131390E3D0002E0AD001233360DEE77B1C5BB26E
S11313A04522A3540125D8E70125D6E70125D4E732
S11313B00E4B98470090A36B4523E75C7FB22A004D
S11313C0019920000C4B98477B1CE7D1A36C002BA0
S11313D0D5D029002000094B984701250028BCD00E
S11313E0002EE1D001233360B7E7C046DD0D0000D5
S11313F0E50D0000791D0000F50E0000710F0000DE
S1131400F0B5C64600B584B004000F000192002870
S11314100AD000290AD0424B984700280BD1019BDF
S1131420002B0CD072B6FEE772B6FEE7036C002BFD
S1131430F1D072B6FEE700263A4B98462FE000261C
S1131440FAE739002000384B9847013DA56323692A
S1131450002B07D020001030344B9847002801D0CF
S1131460334B9847334B9847012004B004BC904653
S1131470F0BD304B98470020F7E702A82E4B984761
S113148016E000224423E2541DE000224523E254E6
S11314901EE02000294B9847294B98470126C04756
S11314A0A56B002DCDD1019B002BE2D0002EE4D002
S11314B0204B9847234B98471A4B98474423E35CA7
S11314C05BB20133DDD04523E35C5BB20133DCD096
S11314D0184B984701A902A81B4B9847002813D121
S11314E020001A4B98470028D3D0200024300199BB
S11314F0174B98472000114B9847114B98470028E9
S1131500CCD10B4B9847C9E720000C4B98470C4BA8
S1131510984720000D4B98470028BFD00020A4E72F
S11315207D1E0000A50D0000D90F0000791D0000EC
S11315308D0D0000BD0D0000F51D00000110000020
S1131540591B0000311A0000051E0000D90E0000CE
S1131550151D0000F0B585B0041E019104D0036C84
S1131560002B03D072B6FEE772B6FEE7504B9847E5
S1131570002804D1019B002B05D072B6FEE700259C
S113158000264C4F48E000250026FAE7013BA36300
S11315902368002B02D1484B984760602369002BD5
S11315A007D020001030454B9847002801D0444B09
S11315B09847444B98470125280005B0F0BD002DFD
S11315C001D072B6FEE73F4B9847F5E702A83E4BC1
S11315D098472AE000224423E25431E000224523C4
S11315E0E25432E0334B98476068384B9847050023
S11315F0344B984739E02000354B9847354B984792
S113160009E02000324B9847324B98472000324B78
S11316109847002838D10126B847A36B002BB5D1D1
S1131620019B002BCBD0002ED0D0264B98472B4BC0
S11316309847204B98474423E35C5BB20133C9D0FD
S11316404523E35C5BB20133C8D01E4B984701A924
S113165002A8234B98470028D3D120001E4B98475B
S11316600028C8D02368002BBCD020002430019966
S11316701C4B98472000164B9847164B9847002858
S1131680C9D10F4B9847C6E7002D00D194E7094B09
S11316909847636A0021002B03D0236B1B68053134
S11316A0C91A6068104B9847064B9847002583E792
S11316B07D1E0000A50D000039200000791D0000EA
S11316C08D0D0000BD0D0000F51D0000991E0000E9
S11316D001100000591B0000D90E0000311A00004F
S11316E0051E0000151D0000AD1F000070B50400AC
S11316F00D001600114B98474423E35C5BB20133A1
S11317000DD04523E35C5BB201330CD00C4B9847FE
S1131710A36B002B0BD020000A4B984770BD00220E
S11317204423E254EDE700224523E254EEE720008F
S1131730243032002900044B9847ECE7A50D000043
S1131740BD0D000001100000411D0000084B9B6A04
S11317501B68002B06D0064B9A6AD268D26852687E
S1131760DA62704701225242014BDA62F9E7C0465D
S1131770B009002070B5034C034D236B012BFCD939
S1131780A847FAE7B00900208D0D000070B50400E9
S11317900D00154B5E6998690430144B9847631C1F
S11317A012D03419104B9B695C60A64215D8104DB9
S11317B0A86A0D4B996904310E4B9847EB6A9C4219
S11317C011D20B4BDC620EE0002DEAD0064B996976
S11317D004310748084B984705E0034BD8699969D9
S11317E00431044B984770BD300A00207F0C000080
S11317F0B0090020510C0000390C0000F0B5D646A9
S11318004F464646C0B584B001900D000293970040
S11318103800614B9847061E00D189E054205E4B86
S11318209847041E00D180E006633A00A5213000E9
S11318305A4B98473A1F236B9C46624407239A43AA
S113184090462A782D33E2542B78002B0DD00135A5
S11318502300353320003C302A781A702A78002A75
S113186003D0013501338342F6D100223B23E254F5
S11318700C9F042F00D90427E76267640026A6643E
S1131880231D03931800464DA84720001830A8478D
S113189024610523DB1BA3616462E6645023E654E0
S11318A0029A019940463F4B984720600D9B002BBC
S11318B000D01C603C4B98473C4B1A6A01321A62B8
S11318C09B69002B37D0394BDB6C002B07D1374B8E
S11318D09B69DB6AE26A934201D8344B9C613349C9
S11318E00B6D01330B65E363E26A4B6D9A4200D9D9
S11318F04A659000821892002D4830308018039970
S11319002C4B98472C4B9847284BDB6C0120002B21
S113191005D0264B9B69DA6AE36A9A4238D304B04D
S11319201CBC90469946A246F0BD3000234B984714
S113193001204042F3E71D4B9C611B6A012BCED171
S11319401B4F380030301E4EB04738004430B0478B
S113195038005830B04738006C30B0473800803019
S1131960B047124B9846242343449A461800B04784
S11319703823434499461800B04738001430B04720
S11319803800B0475346BB6243464A46DA61A6E78D
S11319900C4B98470120C2E7650E00002724000085
S11319A0330C0000050D0000A50D0000300A0020D6
S11319B0B0090020390C0000BD0D0000CD0E000060
S11319C01D0C00008D0D000010B582B0114B5C336E
S11319D001930023009340220F491048104CA04764
S11319E0012803D0431C12D002B010BD0D4B984700
S11319F00128F7D172B6012252420B4BDA62054B31
S1131A000232DA6400225A61084B9847ECE772B656
S1131A10FEE7C046300A0020EC24000075170000E1
S1131A20FD170000E9200000B0090020290D000086
S1131A30024A936D013393657047C046300A002013
S1131A40014B58697047C046300A0020F8B5CE46AD
S1131A50474680B53B4B9B6D002B64D1394B5E6987
S1131A6001365E61002E11D1374B9B6A1B68002B37
S1131A7001D072B6FEE7344A916A324BD86990625B
S1131A80D9611A6E01321A66304B98472E4BDB6AC5
S1131A9000249E4237D300242B4B9946302294468F
S1131AA0634498464B469B6A1B68002B27D0264B01
S1131AB09B6ADB68DF687B689E4231D33D1D28004A
S1131AC0234B9847BB6A002B03D038001830204BB7
S1131AD09847FB6A1B4A526D934201D9194A5365D0
S1131AE09800C0188000404429001A4B9847154BB1
S1131AF09B69FA6ADB6A9A42D4D30124D2E70122B1
S1131B005242114BDA620F4B9B69DA6A93009B18BD
S1131B109B000D4AD3181B6B012B09D9012407E044
S1131B20094AD362EFE7074A536E01335366002430
S1131B30044B9B6E002B00D0012420000CBC90466B
S1131B409946F8BD300A0020B00900204D17000066
S1131B507F0C0000390C0000F0B583B0314B9B6D55
S1131B60002B01D172B6FEE72F4B98472D4B9A6D8F
S1131B70013A9A659B6D0024002B04D1294B1B6A02
S1131B800025002B04D1294B9847200003B0F0BD59
S1131B90274F3E0030367B69002B22D0244B1B6A32
S1131BA0DD6828001830234CA0472B1D0193180032
S1131BB0A047EB6A1B4A526D934201D9194A5365F7
S1131BC09800C0188000301801991B4B9847154B9A
S1131BD09B69DB6AEA6A9A42DDD30122114B9A6659
S1131BE0D9E7002D01D0154B98470E4B5C6E002CA5
S1131BF00ED0134F1E00012502E0013C002C04D03E
S1131C00B8470028F9D0B566F7E70022054B5A66B5
S1131C10044B9B6E0024002BB5D00A4B984701342B
S1131C20B1E7C046300A0020A50D0000BD0D00003C
S1131C30B00900207F0C0000390C00004D17000093
S1131C404D1A00008D0D000010B5041E0FD0094B75
S1131C509B6D002B01D072B6FEE7074B984700211D
S1131C602000064B9847064B9847002801D1054BA6
S1131C70984710BD300A0020311A00008D1700006B
S1131C80591B00008D0D000010B5204B9B6D002BDF
S1131C9019D11E4B00229A665B6D9A00D2189200ED
S1131CA01B498A18126B002A11D1002B09D0013B61
S1131CB09A00D21892008A18126B002A07D1002BBE
S1131CC0F5D172B6FEE70122104B9A6610BD104A98
S1131CD09900C81880001018446B64684463C918DC
S1131CE089000200383294420AD09A00D218920035
S1131CF007498A18526BD168044A91615365E5E734
S1131D0060680A0002498A185063EEE7300A00202E
S1131D10B009002010B50C00002801D172B6FEE70E
S1131D20044B99691831044B984701212000034B57
S1131D30984710BD300A0020510C00008D17000098
S1131D4070B50C00150000280DD0084B99691831A6
S1131D50074B9847002D01D001246442290020003C
S1131D60044B984770BD72B6FEE7C046300A0020A7
S1131D70390C00008D17000070B5C368DC68002CB6
S1131D8028D0250018352800164B9847164B9B6D14
S1131D90002B21D1251D2800124B9847E36A124AD3
S1131DA0526D934201D9104A53659800C3189B00A1
S1131DB00E483030C01829000D4B98470A4B9B69D8
S1131DC0E26ADB6A00209A4203D90122064B9A6632
S1131DD0013070BD72B6FEE7290004481430044B8C
S1131DE09847EBE77F0C0000300A0020B009002080
S1131DF0390C0000024B1A6E02605B694360704745
S1131E00300A002070B506000D0000281BD0002900
S1131E101BD0134B9847134B5A6971682B68581C95
S1131E201CD01048006E3468844202D001248A42D7
S1131E3005D2521A9A420AD300232B6001240A4B7A
S1131E409847200070BD72B6FEE772B6FEE79B1A93
S1131E502B603000054B98470024F0E70024EEE7A0
S1131E60A50D0000300A0020BD0D0000F51D000086
S1131E700122014B9A667047300A0020054BDB6C47
S1131E800120002B04D0034B986D4342584140007D
S1131E907047C046300A002070B5041E3DD0C16AA8
S1131EA01F4B9B69DB6A99422FD28369002B05DBA8
S1131EB01B4B9B69DA6A05239B1A83618B005918B3
S1131EC08900184B30335B1862699A4205D0144B71
S1131ED09B69DB6AE36201201EE0251D2800124B8A
S1131EE098470F4B9A69D26AE2625B6D9A4201D9B4
S1131EF00B4B5A659000821892000A4830308018C3
S1131F0029000A4B9847012006E0054B9B69406C69
S1131F10DB6A98428041404270BD0020FCE7C04625
S1131F20300A0020B00900207F0C0000390C0000AA
S1131F3070B5041E2DD0194B9B69984201D072B61E
S1131F40FEE7836C002B01D172B6FEE7013B83648C
S1131F50C26A416C8A421ED00020002B18D1251D74
S1131F6028000F4B9847636CE3620522D21AA261E2
S1131F700A4A526D934201D9084A53659800C3181E
S1131F809B0008483030C0182900074B98470120AF
S1131F9070BD0020FCE70020FAE7C046300A0020AC
S1131FA07F0C0000B0090020390C000070B5041E3D
S1131FB00DD0836C002B01D172B6FEE7406C8842D1
S1131FC000D20800E26A824201D0012B00D070BD29
S1131FD0154B9B699C4201D172B6FEE7E062A3698E
S1131FE0002B02DB0523181AA06193009A189200B3
S1131FF00E4B30339B1862699A42E8D1251D2800A4
S11320000B4B9847E36A084A526D934201D9064A3A
S113201053659800C3189B0004483030C018290049
S1132020044B9847D3E7C046300A0020B00900208B
S11320307F0C0000390C0000054B9B69002B04D079
S1132040034B9A69936C01339364014B986970470D
S1132050300A002010B54160006191420BD8D21AB9
S1132060012483699A4211D2011D094B1868094B56
S1132070984700240AE09A4202D20124994205D2E8
S1132080011D034B5868034B98470024200010BDE2
S11320909C0A0020510C0000F8B50E4B98470E4BDB
S11320A09B68002B02D00D4B9847F8BD0A4C2600C4
S11320B00C3630000A4FB847250020352800B847B1
S11320C06660256000220C210220064B9847A06020
S11320D0E9E7C046A50D00009C0A0020BD0D0000E4
S11320E01D0C00002D11000010B582B00B4B984759
S11320F00B4B9B68002B0ED0094B34330193022306
S113210000930023402207490748084CA0470028B1
S113211001D002B010BD72B6FEE7C046992000009F
S11321209C0A00202C2500004D220000FD17000011
S113213030B585B004001D00002814D0134B9868F6
S1132140002821D0019102920394052915DC104B3B
S11321509847022809D00D4B98680023002201A952
S11321600C4CA0470EE072B6FEE7084B98680023BB
S1132170089A01A9074CA04704E000232A0001A9FA
S1132180054CA04705B030BD0020FBE79C0A0020A9
S11321907D1E00007911000031130000F0B5D64611
S11321A04F464646C0B582B08046234B9847824688
S11321B0224B9B6B984217D30023424613601F4B5C
S11321C052469A63504602B01CBC90469946A246B9
S11321D0F0BD002300933A0000212000184CA047D2
S11321E0002804D172B6FEE7144D164B99466B686D
S11321F01A68002A17D0DB681F68DC68261D3000C7
S1132200C8472000636A9847E369012BEFD1A369AB
S1132210FB189F42DDD263602461084B586831008B
S1132220094B9847E3E7054A11685160136001239D
S113223042461360C3E7C046411A00009C0A0020CE
S1132240312100007F0C0000510C0000F0B589B072
S1132250524F534B5B681A68002A0ED0DB681C6827
S1132260504B984705A8504B98470500059B002BF9
S11322705FD1A04236D200220FE04A4B984705A80E
S1132280494B98470500059B002B52D1444B1B68D2
S11322901B685A425A41D2B20024611B404B9868D1
S11322A0424B9847424B984700283FD03C4D414C05
S11322B0002205A9A868A0470028CAD0059B03935B
S11322C0002BF5DB079E7369002B01D0301DB84746
S11322D004A8354B9847059B092BE9D89B00364A3F
S11322E0D3589F46324B98472D4B5B68DB68DE68BA
S11322F0301D2A4B9847F369012B03D0736A3000D1
S11323009847D3E7B369E11823002A0030002B4D26
S1132310A8470028F2D000230093220000213000B7
S1132320274CA0470028E9D172B6FEE7254B984711
S1132330BCE71F4B9847B9E7069BB26994466344D0
S11323401900069B020030001C4CA0470028AED0A8
S11323503000736A9847F369012BA8D1069BB169D1
S11323608C4663441A000023009300213000144C6F
S1132370A04700289BD172B6FEE70699B1610029F7
S113238006D041180300020030000C4CA0478EE731
S113239072B6FEE730000C4B984788E77F0C0000CC
S11323A09C0A0020311A00009D210000ED16000057
S11323B0591B0000011400000425000055200000F2
S11323C0312100008D0D0000CD0E000070B50026F7
S11323D00C4D0D4C641BA410A64209D1002600F03C
S11323E0A9F80A4D0A4C641BA410A64205D170BD7D
S11323F0B300EB5898470136EEE7B300EB58984723
S11324000136F2E740250000402500004025000089
S113241044250000002310B59A4200D110BDCC5CC5
S1132420C4540133F8E703008218934200D1704783
S113243019700133F9E700002E2E2F68616C2F7399
S113244072632F68616C5F696F2E63002E2E2F6894
S1132450616C2F7372632F68616C5F757361727442
S11324605F6173796E632E63000000002E2E2F6867
S1132470616C2F7574696C732F7372632F75746933
S11324806C735F72696E676275666665722E63004F
S11324900004004200080042000C00420010004208
S11324A000140042001800420000004300040043EE
S11324B00000000000000000000000000000000018
S11324C000000000000000002E2E2F68706C2F7397
S11324D06572636F6D2F68706C5F736572636F6D87
S11324E02E6300004578616D706C650049444C456D
S11324F0000000000925630925750925750925755E
S11325000D0A00003823000038230000382300009F
S1132510B02200007A230000942300003823000036
S113252038230000B02200007A230000546D72208A
S113253053766300F8B5C046F8BC08BC9E467047A5
S1132540E5000000F8B5C046F8BC08BC9E467047DC
S1072550BD000000C6
S113255448656C6C6F20576F726C6421AAAAAAAA8E
S9030000FC
