S01E0000526F61645363616E6E657244617461416371756972652E7372656372
S1130000A82B00202D010000290100002901000077
S113001000000000000000000000000000000000DC
S11300200000000000000000000000005514000063
S1130030000000000000000021150000651500000C
S11300402901000029010000290100002901000004
S113005029010000290100002901000029010000F4
S11300602901000029010000F90E00002901000007
S1130070290100008D0E0000290100002901000063
S113008029010000290100002901000029010000C4
S113009029010000290100002901000029010000B4
S11300A029010000290100002901000029010000A4
S11300B029010000290100002901000010B5064CA7
S11300C02378002B07D1054B002B02D0044800E015
S11300D000BF0123237010BD1400002000000000A5
S11300E0A42C0000084B10B5002B03D00749084886
S11300F000E000BF07480368002B00D110BD064B89
S1130100002BFBD09847F9E70000000018000020FE
S1130110A42C0000A42C00000000000010B5014B2A
S1130120984710BDE1030000FEE7000010B5174A30
S1130130174B9A4211D01A00164B9A420DD2164A06
S113014003339B1A9B0801339B00002210480F497C
S11301508C58845004329A42FAD1104A104B9A4275
S11301600AD2D3430E495B1803218B4304339B18F3
S1130170002102C29342FCD10A4AFF210A4B8B435D
S113018093600A4B98470A4B9847FEE7A42C00005B
S113019000000020140000200400002014000020AF
S11301A0A80B002000ED00E000000000FD2A000084
S11301B03D130000064B4021DC2299500331143AD0
S11301C09950044AD36923390B43D3617047C0461D
S11301D0001C00400008004030B58223DB05CA2221
S11301E0995C0125A94301242143C9B29954B5203E
S11301F0195CBB3A91430C3A11431954CB215A5C14
S1130200AA432243D2B25A541A5CBC390A4021315F
S11302100A431A5430BD000010B582B0064B98470B
S1130220002300931033054A05490648064CA047AD
S1130230064B984702B010BDB50100003000002005
S113024000140042000B002001090000D901000045
S1130250F0B5DE4657464E464546E0B5C021C905D1
S113026080235B018A2252008B500C3A8B508223EC
S1130270DB0520323A489850C02000068346985047
S1130280A6267600985D0125A84301242043C0B228
S11302909855163E985D0F27BC46B8430D3F38432A
S11302A0C0B2985582204000824680208001574683
S11302B0C8512C4898502C48814698504E27FF37F7
S11302C0D85D0334A046A043D855D85DA843033C69
S11302D02043C0B2D855985D3F3FFF3F38401F349C
S11302E0204398558020C001544608511F48985017
S11302F048469850A72040001E5C4446A6431E541E
S11303001E5CAE43033C2643F6B21E543826FF3629
S1130310985D6446A0430D3C2043C0B298558020AC
S113032000011334FF3408510C3C08511049995012
S1130330594699504C21FF315A5CAA43083CFF3C72
S11303401443E4B25C543621FF315A5C1740302226
S113035017435F543CBC90469946A246AB46F0BD59
S11303600010004000200240000002C00040024093
S113037000080040064B402194225200995003315A
S1130380603A9950034A136A41390B431362704728
S1130390001C00400008004010B5064B984720237D
S11303A0054A103205490648064CA047064B9847B3
S11303B010BDC04675030000300000200004004357
S11303C0500B0020790600005102000010B50248CD
S11303D0024B984710BDC04610E000E02104000025
S11303E010B5044B9847044B9847044B9847044B6B
S11303F0984710BD710B000019020000990300001A
S1130400CD030000EFF31083036072B6BFF35F8F78
S11304107047BFF35F8F036883F310887047000051
S113042010B5024B1860024B984710BD60000020C5
S11304303D12000070B506000C00150000280DD018
S11304400800431E9841C0B234220549054B984721
S113045033682A0021003000984770BD0020F3E77C
S1130460682B0000690A000010B50438C36A984775
S113047010BD7047F0B583B004000D001600431E94
S11304809841C0B288221749174B98470020002E84
S113049001D103B0F0BD01A8144B984755222300A5
S11304A0243B9B5CDB0716D42700243F5522BB5C0E
S11304B001210B43BB5401A80D4B9847FD63002257
S11304C04223FA52023BFE52200020380121094BFC
S11304D098470020DDE701A8054B984704204042D7
S11304E0D7E7C0467C2B0000690A00000504000021
S11304F013040000E5100000F0B5C64600B584B052
S113050007000C001600431E9841C0B2B6222049D1
S1130510204B98470020002E03D104B004BC904621
S1130520F0BD20239C46BC446346019360461A4BAD
S1130530984703000020002BEFD03A00243A127AA7
S1130540022A01D17600B6B29E4200D91E00002CC8
S113055012D0A31998462100002E06D00F4D4C1C32
S11305600198A84721004445F9D1243F3B7A7008FB
S1130570022BD2D03000D0E7002EF6D00024074D55
S113058002ABD91D0198A8470134A642F8D1ECE783
S11305907C2B0000690A00004D0B0000C50A000016
S11305A070B504000D000021094B9847002120007C
S11305B0084B984700212000074B9847201F5522DD
S11305C0835C01218B438354836B2900984770BD5E
S11305D0E51000003911000085110000F8B5040091
S11305E0071F0A4B9847050026004036C1B2300069
S11305F0074B98472379012B04D92904090E3000AD
S1130600034B9847236B38009847F8BDC511000089
S11306100D0B000070B504000379012B0FD9021FE4
S1130620806B4221535A5D1C55525B00195A2000BD
S11306300F4B9847E28FA38F9A420BD270BD031FD2
S1130640806B42215A5A551C5D52815C2000084B34
S11306509847EFE700212000064B9847201F5522BA
S1130660835C01218B438354036B9847E6E7C046C0
S113067091110000E5100000F8B504000D0016000B
S11306801F0000283CD000293CD0002A3CD0180090
S1130690431E9841FB221D491D4B984720004430BE
S11306A03A0031001B4B9847002828DB261D2900FF
S11306B03000194B9847002821DB184A00213000EC
S11306C0174DA847174A01213000A847164A0221AE
S11306D03000A847154A03213000A8475522A35CDF
S11306E002218B4301398B43A354114BA363E3626F
S11306F0236363630F4BA3620F4B63620020F8BD57
S11307000020C7E70020C5E70020C3E77C2B0000DA
S1130710690A0000710A00009D100000150600001F
S113072031120000DD05000069040000A10500008D
S113073073040000F90400007504000010B50838C3
S113074000230363436A002B00D0984710BD10B503
S1130750083800230363C36A002B00D0984710BDF8
S113076010B504002C30044B9847236A083C002B36
S113077001D02000984710BD0D0B000070B5040097
S11307800E00150000281DD000291DD01000431EA6
S113079098413C22FF320F490F4B98474423E25AB9
S11307A00833E35A9A4211D1A6644C23E55200223D
S11307B0083BE252433B236320000830074B984731
S11307C0280070BD0020E4E70020E2E71C2040423E
S11307D0F7E7C0469C2B0000690A0000090E0000E0
S11307E070B5040001000839838F4C228A5A9A425A
S11307F00CD00A00896C5D1C44201552C95C200091
S1130800044B98472000044B984770BD034B98470E
S1130810FBE7C046010E0000090E0000110E0000A7
S1130820F0B5CE46474680B585B005000E001700EA
S1130830002815D0002913D0002A2AD1AC22520056
S113084029490020294B984703A8294B9847280099
S11308503430284B984703A8274B984700253CE0A1
S1130860AC22520020490020204B984703A8204B7B
S113087098473435280001951E4B9847804603A8B5
S11308801D4B984700254346002B26D0002F16D138
S113089023E0AC22520014490120144B984703A8CA
S11308A0134B9847343528000195124B98478046DE
S11308B003A8114B984743460025002B0DD0002474
S11308C00E4B9946651CADB231190198C8470134E5
S11308D0444502D2A3B29F42F4D8280005B00CBC10
S11308E090469946F0BDC0469C2B0000690A000062
S11308F0050400004D0B000013040000C50A0000AD
S1130900F8B504000D0016001F00002826D00029A9
S113091026D0002A26D01800431E98413A221449B2
S1130920144B9847200034303A003100124B98475A
S1130930002819D1200008302900104B98470028BE
S11309400BD10F4B63600F4B23600F4BA3600F4B16
S1130950E3600F4B23610F4B6361F8BD0020DDE7BB
S11309600020DBE70020D9E70D204042F5E7C04630
S11309709C2B0000690A0000710A00007D0D000034
S1130980210800007D070000E10700006107000066
S11309903D0700004F07000010B50400431E9841B6
S11309A0C0B261220449054B984720000830044B2B
S11309B09847002010BDC0469C2B0000690A000027
S11309C0ED0D000070B504000D0000280AD00800E9
S11309D0431E9841C0B277220349044B98472C60C8
S11309E0002070BD0020F6E79C2B0000690A00007F
S11309F070B505000E001400431E9841C0B2832256
S1130A001649174B9847012E11D0002E04D0022E00
S1130A1018D00D20404209E0AC62621E9441E2B25B
S1130A202800083001210F4B9847002070BD6C62EC
S1130A30621E9441E2B2280008300221094B984713
S1130A400020F3E7EC62621E9441E2B22800083011
S1130A500321044B98470020E8E7C0469C2B000084
S1130A60690A0000190E0000002800D100BE70477A
S1130A7070B504000E00150000280BD0002918D012
S1130A800120002A07D128220C4900200C4B98474A
S1130A906B1E07E0002028220849094B98476B1E6B
S1130AA02B4208D163600023A360E360266000202A
S1130AB070BD0020EFE70D204042F9E7BC2B000099
S1130AC0690A000070B504000D00002815D0080064
S1130AD0431E9841C0B240220A490B4B9847A36871
S1130AE0E2689A420BD0626813402268D35C2B7090
S1130AF0A3680133A360002070BD0020EBE70A2047
S1130B004042F9E7BC2B0000690A000070B50400FC
S1130B100D00431E9841C0B251220A490A4B98471E
S1130B206368E26813402268D554E3686168A26888
S1130B309A1A8A4201D9591AA1600133E36000204C
S1130B4070BDC046BC2B0000690A000010B504004B
S1130B50431E9841C0B267220349044B9847E0689A
S1130B60A368C01A10BDC046BC2B0000690A00006F
S1130B7010B5084B5A685A60074B9847074B98477B
S1130B80074B9847074B9847FF20074B9847074B5D
S1130B90984710BD00400041F10B0000090C000013
S1130BA0E50B0000490C0000C10B0000B10B000074
S1130BB09022D205137802218B43137070470000F2
S1130BC0C30707D5044A054B1A621900044A4B6847
S1130BD01342FCD17047C04606010100001C0040CE
S1130BE0FD0700000122014B1A7170470008004004
S1130BF0044BDA69F82149010A40DA6101221A61D9
S1130C007047C046001400400E4B02221A75093288
S1130C105A751900073A8B691A42FCD10949042212
S1130C208B691A42FCD10722064B9A7519000932C6
S1130C30CB681A42FCD0034A137D80210B43137501
S1130C407047C046001000407047000030B589B0BE
S1130C500C4B6A4632CB32C232CB32C212CB12C2F6
S1130C60009B83420BD001239A006946525882426A
S1130C7006D00133082BF7D1002009B030BD002382
S1130C80D8B2FAE7E02B0000064B984203D0064B9B
S1130C90984203D07047054B1960FBE7034B59603A
S1130CA0F8E7C0460014004200040043640000203A
S1130CB010B58623DB05984207D0084B984204D030
S1130CC0074B98470930C0B210BDBD231B069C4694
S1130CD06044800A0930C0B2F6E7C046000400430D
S1130CE04D0C000010B504001E4B9847042804D096
S1130CF01D4A1E4900201E4B9847E369DB0718D4A0
S1130D000322E3691A42FCD123689B070BD52368AD
S1130D100222934323600132E3691A42FCD1022286
S1130D20E3691A42FCD1052323600322E3691A42D2
S1130D30FCD10122E3691A42FCD10E4B2360032249
S1130D40E3691A42FCD1C0239B0263600722E36972
S1130D501A42FCD1084BA3810023A3733022A3546D
S1130D60002010BD4D0C000063020000182C000090
S1130D70690A0000040031402BF6FFFF70B506003D
S1130D800C00431E9841C0B2C6221249124B984728
S1130D902000124B9847051E01D0280070BDB46195
S1130DA0310020000E4B984720000E4B9847030655
S1130DB0F3D41F2318401E3B83400B4A8021535019
S1130DC0BFF34F8FBFF36F8F0131FF315350136067
S1130DD0E3E7C046182C0000690A0000E50C000097
S1130DE0890C0000B10C000000E100E08269136886
S1130DF002210B4313600131D3691942FCD17047BE
S1130E00836989B219857047836901229A7570478D
S1130E10836902229A75704770B504000D001600AC
S1130E20431E9841C0B2164A1649174B98470223ED
S1130E302A009A430ED1A369002E05D101221A7506
S1130E40A36901321A7570BD01229A75A369013232
S1130E509A75F8E7012D07D0032DF4D1A369002E6C
S1130E600BD080229A75EEE7A369002E02D10422EA
S1130E701A75E8E704229A75E5E780221A75E2E715
S1130E8023020000182C0000690A000010B5194B59
S1130E9018688469237EDB0702D5A37DDB070FD4A2
S1130EA0237E9B0702D5A37D9B070ED4237E5B077D
S1130EB015D5628B37231A420CD04833638310BD97
S1130EC00123237503689847F9E702232375836890
S1130ED09847F4E7218DC9B243689847EFE7237E2A
S1130EE0DB09ECD080232376C3689847638B9BB2DD
S1130EF06383E4E76400002010B5124B586802686D
S1130F00117E937D0B40D90707D4590708D499075C
S1130F1009D45BB2002B0BDB10BD83689847FBE759
S1130F20C3689847F8E70223137603699847F3E701
S1130F30042353837C33137643691321494298472E
S1130F40EAE7C0466400002070B505000C00080004
S1130F50344B984707280BD0002D52D0601E844193
S1130F60E0B2314A3149324B98470D20404247E0C4
S1130F70002D4ED12C4A2D4900202D4B9847E36972
S1130F80DB0718D40322E3691A42FCD123689B07C8
S1130F900BD523680222934323600132E3691A428A
S1130FA0FCD10222E3691A42FCD109232360032203
S1130FB0E3691A42FCD10122E3691A42FCD12C6094
S1130FC02000431E9841C0B21A4A1849184B98474A
S1130FD0194B23600322E3691A42FCD1174B636067
S1130FE00722E3691A42FCD1002363623022A3542E
S1130FF0E369002BFCD101332B710023EB8000202B
S113100070BD094A09490020094B98470D20404208
S1131010F6E72000431E9841C0B2034A0349044B3B
S11310209847ACE74D0C00007A090000182C00002A
S1131030690A00003409000008002320400202006D
S113104070B504000D00114B984700281BDB2100EC
S113105028000F4B984700232361E360A360280016
S11310600C4B984703060FD41F2318401E3B8340A4
S1131070094A80215350BFF34F8FBFF36F8F013163
S1131080FF315350002070BD0020FCE7490F0000E1
S1131090890C0000B10C000000E100E010B5014B28
S11310A0984710BD4110000070B50D000468002879
S11310B00DD02000431E9841C0B2074A0749084B8F
S11310C09847002D05D101232375002070BD002011
S11310D0F3E70123A375F8E7060B0000182C0000C2
S11310E0690A000010B5014B984710BDA910000013
S11310F0F8B50E0005680C4C431E9841C0B20B4A6B
S113110021000B4FB8472800431E9841C0B2094A3A
S11311102100B847002E03D104232B750020F8BD0D
S11311200423AB75FAE7C046182C00001A0B000024
S1131130690A00001B0B000010B5014B984710BD55
S1131140F110000070B504000D0000280ED00068F6
S1131150431E9841C0B2084A0849094B9847002DDC
S113116006D1236802221A75002070BD0020F2E720
S1131170236802229A75F7E72D0B0000182C000053
S1131180690A000010B5014B984710BD45110000D5
S113119070B504000D0000280BD00068431E984170
S11311A0C0B2054A0549064B984723689D62002052
S11311B070BD0020F5E7C046480B0000182C000065
S11311C0690A000010B5041E0BD00068431E984144
S11311D0C0B2054A0549064B98472368986A80B20D
S11311E010BD0020F5E7C046610B0000182C00007C
S11311F0690A000070B504000D00160000280FD025
S1131200002003238B424041C0B201231840054A09
S11312100549064B9847AD006419A660002070BDCF
S11312200020F2E7730B0000182C0000690A00008C
S113123010B5014B984710BDF5110000024B034A4D
S11312405A6005221A60704710E000E0FFFFFF00BB
S1131250F8B50D4E0D4C0E4D03E0FA2080000D4BF9
S11312609847012149423068A0470028F5D0102151
S11312702800094B9847044B1868002300220021DA
S1131280064FB847E9E7C0466C000020851C000003
S11312900000002079230000F5120000A9180000C6
S11312A010B582B001200C4B98470C4B18600028F5
S11312B000D1FEE700230193013300930023202291
S11312C007490848084CA047012800D0FEE7074B0F
S11312D0984702B010BDC046351A00006C000020CB
S11312E0342C0000511200002D1F0000F9200000D2
S11312F07047000070B582B006000C00094D0A4A20
S113130001212800094B984701A92800084B984758
S11313102800084B9847A2B231000198064B984721
S113132002B070BD000B0020F1120000F1090000B2
S1131330C5090000990900003504000010B5024BEE
S11313409847024B9847FEE71D010000A1120000D8
S1131350030008334360012252428260C360036188
S113136000230360704700230361704743684B60A8
S11313709A688A609A6851609960086103680133C9
S11313800360704730B50C6802000832631C02D158
S1131390026904E01A0053681D68AC42FAD253682B
S11313A04B6099608A60516008610368013303608F
S11313B030BD036942688168916082684168516008
S11313C05A68904206D0002202611A68013A1A60F3
S11313D01868704782685A60F5E7000082B00023FD
S11313E00193064B1B68013301D072B6FEE772B657
S11313F0019B002BFCD002B07047C04610000020B7
S11314000B4A13681868203080F30988022080F39F
S11314101488BFF36F8F3FBCAE4608BC04BC62B6F1
S11314201847C046C046C046C046C046C046C0462F
S1131430700A002010B5031F802464041C60043B60
S11314401960043B02491960143B1A60403810BD0E
S1131450DD1300007047000010B50F4B1968FF2220
S113146012040A431A601968FF2212060A431A601A
S11314700A4A002313600A490B600A480A490860B3
S113148007211160094A1360094B9847094B984793
S1131490094B9847002010BD20ED00E010E000E06B
S11314A018E000E09F0F000014E000E010000020AE
S11314B001140000B9230000DD130000802252054E
S11314C0034B1A60BFF34F8FBFF36F8F7047C04653
S11314D004ED00E072B6044A136801331360BFF3ED
S11314E04F8FBFF36F8F704710000020064B1B68AF
S11314F0002B01D172B6FEE7013B034A1360002BB7
S113150000D162B67047C04610000020EFF310808F
S113151072B6704780F31088704700000000000026
S1131520EFF309800E4B1A6820381060F0C044466F
S11315304D4656465F46F0C008B572B600F03CFF13
S113154062B60CBC116808681030F0C8A046A94601
S1131550B246BB4680F309882038F0C81847C04615
S1131560700A002010B5074B98470400064B9847B3
S1131570002803D080225205044B1A602000044B3B
S1131580984710BD0D1500007D21000004ED00E01A
S11315901515000070B50400430702D007239C43CF
S11315A00834114B9847114B1B68002B10D0104B7B
S11315B05B6EE4180F4A944211D8A34211D20B4A2D
S11315C01568ED180A4B5C660B4B9847280070BDF4
S11315D0064A13000C3307218B431360E7E7002509
S11315E0F2E70025F0E7C04661210000700000200A
S11315F0700900205709000089220000002801D04A
S113160072B6FEE77047000010B50400034B98471C
S1131610A46B034B98476042604110BDD514000091
S1131620ED14000070B504001600856B026C002AEE
S11316300BD100202368834204D16068164B98477D
S1131640002363600135A56370BD002E0ED1806850
S1131650124B9847A368226C94466344A36000200D
S113166062689342EED32368A360EBE7C0680B4B38
S11316709847236C5B42E268D218E26021688A4290
S113168003D2626894466344E3600020022ED9D1F9
S11316908542D7D0013DD5E761260000452B0000E7
S11316A070B582B001900A00846C002C05D0A16B47
S11316B0E36B994203D372B6FEE772B6FEE7A16B01
S11316C000268B4202D8300002B070BD4523E55C91
S11316D06DB201A920000A4B984706006B1C0AD181
S11316E0636A002BEFD020002430064B9847002873
S11316F0E9D00126E7E701356DB24523E554E2E779
S113170025160000A924000010B50C00026C002A64
S11317100BD0C3689B18C36041688B4201D3036834
S1131720C360C1682000014B984710BD452B0000E1
S1131730F8B50700254B98474523FC5C64B2002CA0
S11317401CDD234E234D0BE07B6A002B16D03800A2
S11317502430A84700280ED1013C64B2002C0DD0DF
S1131760BB6C002BF0D000213800B0470028F3D028
S1131770194B9847F0E7184B9847EDE7FF224523AC
S1131780FA54164B9847114B98474423FC5C64B2B7
S1131790002C14DD3B69002B11D03D0010350D4E9B
S11317A006E0013C64B2002C09D03B69002B06D052
S11317B02800B0470028F4D0074B9847F1E7FF22F0
S11317C04423FA54054B9847F8BDC046D51400008D
S11317D0A1160000A9240000A1250000ED140000BA
S11317E070B504000D00002821D0174B98472268DB
S11317F0216CE36B4B43D01860600020A063A260AF
S11318005B1AD318E360FF234422A3540132A35488
S1131810002D11D12369002B05D0200010300B4B73
S11318209847002805D10A4B9847012070BD72B62D
S1131830FEE7084B9847F6E720001030064DA8470E
S113184020002430A847EEE7D5140000A9240000A6
S1131850ED140000BD14000051130000F8B506009B
S11318600D001700002801D172B6FEE7080070438E
S113187054300B4B9847041E10D0002D03D00300A6
S11318805433036000E02060E663256401212000F6
S1131890044B98475023E7540023A3642000F8BD69
S11318A095150000E1170000F0B5CE46474680B517
S11318B085B004000F0001921D0000280CD00029FF
S11318C00CD0022D0FD04E4B9847002810D1019B0D
S11318D0002B11D072B6FEE772B6FEE7036C002B44
S11318E0EFD072B6FEE7E36B012BECD072B6FEE7E5
S11318F00026444B98464CE00026FAE72A003900BB
S11319002000414B9847A36C002B0FD029002000E6
S11319103E4B9847002801D03D4B98473D4B984794
S1131920012005B00CBC90469946F0BD636A002BBB
S113193008D020002430384B98470028EED0344B90
S11319409847EBE70028E9D0314B9847E6E7314B5D
S113195098470020E5E72F4B984701A902A82F4B91
S11319609847002844D1274B9847A36B9946E66BC8
S1131970284B9847B14535D1200010300199284BA8
S113198098472000274B9847274B9847002826D094
S11319900126C047A36BE26B9342AFD3022DADD0B7
S11319A0019B002BD3D0002E02D102A81F4B9847D5
S11319B0184B98471E4B9847124B98474423E35CB7
S11319C05BB2013302D100224423E2544523E35C99
S11319D05BB20133BFD100224523E254BBE70C4B79
S11319E09847D5E720000F4B98470F4B9847CFE710
S11319F020000C4B98470C4B9847002091E7C046B9
S1131A00AD250000D514000025160000A116000025
S1131A10BD140000ED140000A924000035250000C9
S1131A20452400003117000089220000252500000C
S1131A306121000070B5020000210120064B984787
S1131A40041E07D0002343600360C360002200210A
S1131A50024DA847200070BD5D180000A9180000C1
S1131A60F0B583B00400019116001D00002812D0C7
S1131A70019B002B11D0022D14D0284B98470090C5
S1131A80A36BE26B9A422FD800250098244B984709
S1131A90280003B0F0BD72B6FEE7036C002BEAD059
S1131AA072B6FEE7E36B012B1AD072B6FEE7636AE7
S1131AB00125002BE9D0200024301A4B9847002838
S1131AC0E3D0002E0AD001233360DEE77B1C5BB237
S1131AD04522A3540125D8E70125D6E70125D4E7FB
S1131AE00E4B98470090A36B4523E75C7FB22A0016
S1131AF0019920000C4B98477B1CE7D1A36C002B69
S1131B00D5D029002000094B984701250028BCD0D6
S1131B10002EE1D001233360B7E7C0460D15000065
S1131B2015150000A924000025160000A1160000C8
S1131B30F0B5C64600B584B004000F000192002839
S1131B400AD000290AD0424B984700280BD1019BA8
S1131B50002B0CD072B6FEE772B6FEE7036C002BC6
S1131B60F1D072B6FEE700263A4B98462FE00026E5
S1131B70FAE739002000384B9847013DA5632369F3
S1131B80002B07D020001030344B9847002801D098
S1131B90334B9847334B9847012004B004BC90461C
S1131BA0F0BD304B98470020F7E702A82E4B98472A
S1131BB016E000224423E2541DE000224523E254AF
S1131BC01EE02000294B9847294B98470126C0471F
S1131BD0A56B002DCDD1019B002BE2D0002EE4D0CB
S1131BE0204B9847234B98471A4B98474423E35C70
S1131BF05BB20133DDD04523E35C5BB20133DCD05F
S1131C00184B984701A902A81B4B9847002813D1E9
S1131C1020001A4B98470028D3D020002430019983
S1131C20174B98472000114B9847114B98470028B1
S1131C30CCD10B4B9847C9E720000C4B98470C4B71
S1131C40984720000D4B98470028BFD00020A4E7F8
S1131C50AD250000D514000009170000A9240000D8
S1131C60BD140000ED14000025250000311700000C
S1131C7089220000612100003525000009160000BA
S1131C8045240000F0B585B0041E019104D0036C16
S1131C90002B03D072B6FEE772B6FEE7504B9847AE
S1131CA0002804D1019B002B05D072B6FEE7002565
S1131CB000264C4F48E000250026FAE7013BA363C9
S1131CC02368002B02D1484B984760602369002B9E
S1131CD007D020001030454B9847002801D0444BD2
S1131CE09847444B98470125280005B0F0BD002DC6
S1131CF001D072B6FEE73F4B9847F5E702A83E4B8A
S1131D0098472AE000224423E25431E0002245238C
S1131D10E25432E0334B98476068384B98470500EB
S1131D20344B984739E02000354B9847354B98475A
S1131D3009E02000324B9847324B98472000324B41
S1131D409847002838D10126B847A36B002BB5D19A
S1131D50019B002BCBD0002ED0D0264B98472B4B89
S1131D609847204B98474423E35C5BB20133C9D0C6
S1131D704523E35C5BB20133C8D01E4B984701A9ED
S1131D8002A8234B98470028D3D120001E4B984724
S1131D900028C8D02368002BBCD02000243001992F
S1131DA01C4B98472000164B9847164B9847002821
S1131DB0C9D10F4B9847C6E7002D00D194E7094BD2
S1131DC09847636A0021002B03D0236B1B680531FD
S1131DD0C91A6068104B9847064B9847002583E75B
S1131DE0AD250000D514000069270000A9240000D7
S1131DF0BD140000ED14000025250000C9250000D5
S1131E00311700008922000009160000612100003A
S1131E103525000045240000DD26000070B50400CF
S1131E200D001600114B98474423E35C5BB2013369
S1131E300DD04523E35C5BB201330CD00C4B9847C7
S1131E40A36B002B0BD020000A4B984770BD0022D7
S1131E504423E254EDE700224523E254EEE7200058
S1131E60243032002900044B9847ECE7D5140000D5
S1131E70ED1400003117000071240000084B9B6A28
S1131E801B68002B06D0064B9A6AD268D268526847
S1131E90DA62704701225242014BDA62F9E7C04626
S1131EA0D809002070B5034C034D236B012BFCD9DA
S1131EB0A847FAE7D8090020BD14000070B5040053
S1131EC00D00154B5E6998690430144B9847631CE8
S1131ED012D03419104B9B695C60A64215D8104D82
S1131EE0A86A0D4B996904310E4B9847EB6A9C42E2
S1131EF011D20B4BDC620EE0002DEAD0064B99693F
S1131F0004310748084B984705E0034BD8699969A1
S1131F100431044B984770BD580A0020B3130000E5
S1131F20D8090020851300006D130000F0B5D646D3
S1131F304F464646C0B584B001900D000293970009
S1131F403800614B9847061E00D189E054205E4B4F
S1131F509847041E00D180E006633A00A5213000B2
S1131F605A4B98473A1F236B9C46624407239A4373
S1131F7090462A782D33E2542B78002B0DD001356E
S1131F802300353320003C302A781A702A78002A3E
S1131F9003D0013501338342F6D100223B23E254BE
S1131FA00C9F042F00D90427E76267640026A66407
S1131FB0231D03931800464DA84720001830A84756
S1131FC024610523DB1BA3616462E6645023E654A9
S1131FD0029A019940463F4B984720600D9B002B85
S1131FE000D01C603C4B98473C4B1A6A01321A6281
S1131FF09B69002B37D0394BDB6C002B07D1374B57
S11320009B69DB6AE26A934201D8344B9C61334991
S11320100B6D01330B65E363E26A4B6D9A4200D9A1
S11320204A659000821892002D4830308018039938
S11320302C4B98472C4B9847284BDB6C0120002BEA
S113204005D0264B9B69DA6AE36A9A4238D304B016
S11320501CBC90469946A246F0BD3000234B9847DD
S113206001204042F3E71D4B9C611B6A012BCED13A
S11320701B4F380030301E4EB04738004430B04754
S113208038005830B04738006C30B04738008030E2
S1132090B047124B9846242343449A461800B0474D
S11320A03823434499461800B04738001430B047E9
S11320B03800B0475346BB6243464A46DA61A6E756
S11320C00C4B98470120C2E795150000572B0000E0
S11320D06713000035140000D5140000580A0020CE
S11320E0D80900206D130000ED140000FD15000058
S11320F051130000BD14000010B582B0114B5C33C5
S113210001930023009340220F491048104CA0472C
S1132110012803D0431C12D002B010BD0D4B9847C8
S11321200128F7D172B6012252420B4BDA62054BF9
S11321300232DA6400225A61084B9847ECE772B61F
S1132140FEE7C046580A00203C2C0000A51E0000F3
S11321502D1F000019280000D80900205914000080
S1132160024A936D013393657047C046580A0020B4
S1132170014B58697047C046580A0020F8B5CE464E
S1132180474680B53B4B9B6D002B64D1394B5E6950
S113219001365E61002E11D1374B9B6A1B68002B00
S11321A001D072B6FEE7344A916A324BD869906224
S11321B0D9611A6E01321A66304B98472E4BDB6A8E
S11321C000249E4237D300242B4B99463022944658
S11321D0634498464B469B6A1B68002B27D0264BCA
S11321E09B6ADB68DF687B689E4231D33D1D280013
S11321F0234B9847BB6A002B03D038001830204B80
S11322009847FB6A1B4A526D934201D9194A536598
S11322109800C0188000404429001A4B9847154B79
S11322209B69FA6ADB6A9A42D4D30124D2E7012279
S11322305242114BDA620F4B9B69DA6A93009B1886
S11322409B000D4AD3181B6B012B09D9012407E00D
S1132250094AD362EFE7074A536E013353660024F9
S1132260044B9B6E002B00D0012420000CBC904634
S11322709946F8BD580A0020D80900207D1E0000A8
S1132280B31300006D130000F0B583B0314B9B6DA8
S1132290002B01D172B6FEE72F4B98472D4B9A6D58
S11322A0013A9A659B6D0024002B04D1294B1B6ACB
S11322B00025002B04D1294B9847200003B0F0BD22
S11322C0274F3E0030367B69002B22D0244B1B6AFB
S11322D0DD6828001830234CA0472B1D01931800FB
S11322E0A047EB6A1B4A526D934201D9194A5365C0
S11322F09800C0188000301801991B4B9847154B63
S11323009B69DB6AEA6A9A42DDD30122114B9A6621
S1132310D9E7002D01D0154B98470E4B5C6E002C6D
S11323200ED0134F1E00012502E0013C002C04D006
S1132330B8470028F9D0B566F7E70022054B5A667E
S1132340044B9B6E0024002BB5D00A4B98470134F4
S1132350B1E7C046580A0020D5140000ED1400006F
S1132360D8090020B31300006D1300007D1E000087
S11323707D210000BD14000010B5041E0FD0094BD0
S11323809B6D002B01D072B6FEE7074B98470021E6
S11323902000064B9847064B9847002801D1054B6F
S11323A0984710BD580A002061210000BD1E00009E
S11323B089220000BD14000010B5204B9B6D002B3A
S11323C019D11E4B00229A665B6D9A00D2189200B6
S11323D01B498A18126B002A11D1002B09D0013B2A
S11323E09A00D21892008A18126B002A07D1002B87
S11323F0F5D172B6FEE70122104B9A6610BD104A61
S11324009900C81880001018446B64684463C918A4
S113241089000200383294420AD09A00D2189200FD
S113242007498A18526BD168044A91615365E5E7FC
S113243060680A0002498A185063EEE7580A0020CF
S1132440D809002010B50C00002801D172B6FEE7AF
S1132450044B99691831044B984701212000034B20
S1132460984710BD580A002085130000BD1E0000C7
S113247070B50C00150000280DD0084B996918316F
S1132480074B9847002D01D0012464422900200005
S1132490044B984770BD72B6FEE7C046580A002048
S11324A06D130000BD1E000070B5C368DC68002C0D
S11324B028D0250018352800164B9847164B9B6DDD
S11324C0002B21D1251D2800124B9847E36A124A9C
S11324D0526D934201D9104A53659800C3189B006A
S11324E00E483030C01829000D4B98470A4B9B69A1
S11324F0E26ADB6A00209A4203D90122064B9A66FB
S1132500013070BD72B6FEE7290004481430044B54
S11325109847EBE7B3130000580A0020D8090020BD
S11325206D130000024B1A6E02605B6943607047D2
S1132530580A002070B506000D0000281BD00029A1
S11325401BD0134B9847134B5A6971682B68581C5E
S11325501CD01048006E3468844202D001248A42A0
S113256005D2521A9A420AD300232B6001240A4B43
S11325709847200070BD72B6FEE772B6FEE79B1A5C
S11325802B603000054B98470024F0E70024EEE769
S1132590D5140000580A0020ED1400002525000081
S11325A00122014B9A667047580A0020054BDB6CE8
S11325B00120002B04D0034B986D43425841400046
S11325C07047C046580A002070B5041E3DD0C16A49
S11325D01F4B9B69DB6A99422FD28369002B05DB71
S11325E01B4B9B69DA6A05239B1A83618B0059187C
S11325F08900184B30335B1862699A4205D0144B3A
S11326009B69DB6AE36201201EE0251D2800124B52
S113261098470F4B9A69D26AE2625B6D9A4201D97C
S11326200B4B5A659000821892000A48303080188B
S113263029000A4B9847012006E0054B9B69406C32
S1132640DB6A98428041404270BD0020FCE7C046EE
S1132650580A0020D8090020B31300006D130000AD
S113266070B5041E2DD0194B9B69984201D072B6E7
S1132670FEE7836C002B01D172B6FEE7013B836455
S1132680C26A416C8A421ED00020002B18D1251D3D
S113269028000F4B9847636CE3620522D21AA261AB
S11326A00A4A526D934201D9084A53659800C318E7
S11326B09B0008483030C0182900074B9847012078
S11326C070BD0020FCE70020FAE7C046580A00204D
S11326D0B3130000D80900206D13000070B5041E68
S11326E00DD0836C002B01D172B6FEE7406C88429A
S11326F000D20800E26A824201D0012B00D070BDF2
S1132700154B9B699C4201D172B6FEE7E062A36956
S1132710002B02DB0523181AA06193009A1892007B
S11327200E4B30339B1862699A42E8D1251D28006C
S11327300B4B9847E36A084A526D934201D9064A03
S113274053659800C3189B0004483030C018290012
S1132750044B9847D3E7C046580A0020D809002004
S1132760B31300006D130000054B9B69002B04D0CC
S1132770034B9A69936C01339364014B98697047D6
S1132780580A002010B54160006191420BD8D21A5A
S1132790012483699A4211D2011D094B1868094B1F
S11327A0984700240AE09A4202D20124994205D2B1
S11327B0011D034B5868034B98470024200010BDAB
S11327C0C40A002085130000F8B50E4B98470E4B41
S11327D09B68002B02D00D4B9847F8BD0A4C26008D
S11327E00C3630000A4FB847250020352800B8477A
S11327F06660256000220C210220064B9847A060E9
S1132800E9E7C046D5140000C40A0020ED14000016
S1132810511300005D18000010B582B00B4B9847AF
S11328200B4B9B68002B0ED0094B343301930223CE
S113283000930023402207490748084CA04700287A
S113284001D002B010BD72B6FEE7C046C927000031
S1132850C40A00207C2C00007D2900002D1F0000EC
S113286030B585B004001D00002814D0134B9868BF
S1132870002821D0019102920394052915DC104B04
S11328809847022809D00D4B98680023002201A91B
S11328900C4CA0470EE072B6FEE7084B9868002384
S11328A0089A01A9074CA04704E000232A0001A9C3
S11328B0054CA04705B030BD0020FBE7C40A00204A
S11328C0AD250000A9180000611A0000F0B5D64635
S11328D04F464646C0B582B08046234B9847824651
S11328E0224B9B6B984217D30023424613601F4B25
S11328F052469A63504602B01CBC90469946A24682
S1132900F0BD002300933A0000212000184CA0479A
S1132910002804D172B6FEE7144D164B99466B6835
S11329201A68002A17D0DB681F68DC68261D30008F
S1132930C8472000636A9847E369012BEFD1A36974
S1132940FB189F42DDD263602461084B5868310054
S1132950094B9847E3E7054A116851601360012366
S113296042461360C3E7C04671210000C40A002038
S113297061280000B313000085130000F0B589B08E
S1132980524F534B5B681A68002A0ED0DB681C68F0
S1132990504B984705A8504B98470500059B002BC2
S11329A05FD1A04236D200220FE04A4B984705A8D7
S11329B0494B98470500059B002B52D1444B1B689B
S11329C01B685A425A41D2B20024611B404B98689A
S11329D0424B9847424B984700283FD03C4D414CCE
S11329E0002205A9A868A0470028CAD0059B039324
S11329F0002BF5DB079E7369002B01D0301DB8470F
S1132A0004A8354B9847059B092BE9D89B00364A07
S1132A10D3589F46324B98472D4B5B68DB68DE6882
S1132A20301D2A4B9847F369012B03D0736A300099
S1132A309847D3E7B369E11823002A0030002B4DEF
S1132A40A8470028F2D00023009322000021300080
S1132A50274CA0470028E9D172B6FEE7254B9847DA
S1132A60BCE71F4B9847B9E7069BB2699446634499
S1132A701900069B020030001C4CA0470028AED071
S1132A803000736A9847F369012BA8D1069BB1699A
S1132A908C4663441A000023009300213000144C38
S1132AA0A04700289BD172B6FEE70699B1610029C0
S1132AB006D041180300020030000C4CA0478EE7FA
S1132AC072B6FEE730000C4B984788E7B31300005A
S1132AD0C40A002061210000CD2800001D1E000052
S1132AE089220000311B0000542C000085270000BF
S1132AF061280000BD140000FD15000070B500261B
S1132B000C4D0D4C641BA410A64209D1002600F004
S1132B10B9F80A4D0A4C641BA410A64205D170BD35
S1132B20B300EB5898470136EEE7B300EB589847EB
S1132B300136F2E7902C0000902C0000902C00004D
S1132B40942C0000002310B59A4200D110BDCC5C37
S1132B50C4540133F8E703008218934200D170474C
S1132B6019700133F9E700002E2E2F68616C2F7362
S1132B7072632F68616C5F696F2E63002E2E2F685D
S1132B80616C2F7372632F68616C5F7370695F731C
S1132B905F6173796E632E63000000002E2E2F6830
S1132BA0616C2F7372632F68616C5F7573617274EB
S1132BB05F6173796E632E63000000002E2E2F6810
S1132BC0616C2F7574696C732F7372632F757469DC
S1132BD06C735F72696E676275666665722E6300F8
S1132BE00004004200080042000C004200100042B1
S1132BF00014004200180042000000430004004397
S1132C0000000000000000000000000000000000C0
S1132C1000000000000000002E2E2F68706C2F733F
S1132C206572636F6D2F68706C5F736572636F6D2F
S1132C302E630000555342504F52540049444C45B2
S1132C400000000009256309257509257509257506
S1132C500D0A0000682A0000682A0000682A0000A3
S1132C60E0290000AA2A0000C42A0000682A000003
S1132C70682A0000E0290000AA2A0000546D72208E
S1132C8053766300F8B5C046F8BC08BC9E4670474E
S1132C90E5000000F8B5C046F8BC08BC9E46704785
S1072CA0BD0000006F
S1132CA4486530303030306F20576F726C642100C7
S1072CB4AAAAAAAA70
S9030000FC
