:10000000902000202D01000029010000290100009E
:1000100000000000000000000000000000000000E0
:1000200000000000000000000000000029010000A6
:10003000000000000000000029010000290100006C
:100040002901000029010000290100002901000008
:1000500029010000290100002901000029010000F8
:1000600029010000290100002901000029010000E8
:1000700029010000890A000029010000290100006F
:1000800029010000290100002901000029010000C8
:1000900029010000290100002901000029010000B8
:1000A00029010000290100002901000029010000A8
:1000B00029010000290100002901000010B5064CAB
:1000C0002378002B07D1054B002B02D0044800E019
:1000D00000BF0123237010BD0C00002000000000B1
:1000E000940C0000084B10B5002B03D007490848BA
:1000F00000E000BF07480368002B00D110BD064B8D
:10010000002BFBD09847F9E700000000100000200A
:10011000940C0000940C00000000000010B5014B8E
:10012000984710BD65020000FEE7000010B5174AB1
:10013000174B9A4211D01A00164B9A420DD2164A0A
:1001400003339B1A9B0801339B00002210480F4980
:100150008C58845004329A42FAD1104A104B9A4279
:100160000AD2D3430E495B1803218B4304339B18F7
:10017000002102C29342FCD10A4AFF210A4B8B4361
:1001800093600A4B98470A4B9847FEE7940C00008F
:10019000000000200C000020040000200C000020C3
:1001A0009000002000ED00E000000000810B000046
:1001B0005D0B0000064B4021DC2299500331143ABC
:1001C0009950044AD36923390B43D3617047C04621
:1001D000001C00400008004030B58223DB05CA2225
:1001E000995C0125A94301242143C9B29954B52042
:1001F000195CBB3A91430C3A11431954CB215A5C18
:10020000AA432243D2B25A541A5CBC390A40213163
:100210000A431A5430BD000010B582B0064B98470F
:10022000002300931033054A05490648064CA047B1
:10023000064B984702B010BDB50100002800002011
:10024000001400424000002015050000D901000004
:1002500010B50248024B984710BDC04610E000E0C0
:10026000E902000010B5034B9847034B9847034B36
:10027000984710BD8D0700001902000051020000D0
:100280007047000010B582B0094C0A4A01212000D5
:10029000094B984701A92000084B98472000084BBC
:1002A00098470C2207490198074B984702B010BDA8
:1002B000400000208102000005060000D905000072
:1002C000AD050000000000201D030000EFF31083C7
:1002D000036072B6BFF35F8F7047BFF35F8F036831
:1002E00083F310887047000010B5024B1860024B72
:1002F000984710BD38000020F50A000010B5044BE7
:100300001C68044B984701002000034B984710BD20
:100310003800002085070000090B000070B50600BA
:100320000C00150000280DD00800431E9841C0B2F3
:1003300034220549054B984733682A0021003000D4
:10034000984770BD0020F3E7C80B00007D06000051
:1003500010B5083800230363436A002B00D0984788
:1003600010BD10B5083800230363C36A002B00D00A
:10037000984710BD10B504002C30044B9847236AF1
:10038000083C002B01D02000984710BD2107000039
:1003900070B504000E00150000281DD000291DD0E6
:1003A0001000431E98413C22FF320F490F4B9847E3
:1003B0004423E25A0833E35A9A4211D1A6644C23EB
:1003C000E5520022083BE252433B23632000083001
:1003D000074B9847280070BD0020E4E70020E2E7C3
:1003E0001C204042F7E7C046DC0B00007D06000001
:1003F000050A000070B5040001000839838F4C2203
:100400008A5A9A420CD00A00896C5D1C442015520D
:10041000C95C2000044B98472000044B984770BDEE
:10042000034B9847FBE7C046FD090000050A0000A2
:100430000D0A0000F0B5CE46474680B585B00500F0
:100440000E001700002815D0002913D0002A2AD149
:10045000AC22520029490020294B984703A8294B78
:10046000984728003430284B984703A8274B9847D3
:1004700000253CE0AC22520020490020204B984748
:1004800003A8204B98473435280001951E4B984708
:10049000804603A81D4B984700254346002B26D0D5
:1004A000002F16D123E0AC22520014490120144B36
:1004B000984703A8134B9847343528000195124BF1
:1004C0009847804603A8114B984743460025002BC8
:1004D0000DD000240E4B9946651CADB23119019820
:1004E000C8470134444502D2A3B29F42F4D8280041
:1004F00005B00CBC90469946F0BDC046DC0B000030
:100500007D060000CD02000061070000DB02000054
:10051000D9060000F8B504000D0016001F000028E1
:1005200026D0002926D0002A26D01800431E984144
:100530003A221449144B9847200034303A003100D5
:10054000124B9847002819D1200008302900104B81
:10055000984700280BD10F4B63600F4B23600F4B64
:10056000A3600F4BE3600F4B23610F4B6361F8BD3A
:100570000020DDE70020DBE70020D9E70D20404226
:10058000F5E7C046DC0B00007D0600008506000094
:10059000710900003504000091030000F50300001C
:1005A00075030000510300006303000010B5040050
:1005B000431E9841C0B261220449054B9847200070
:1005C0000830044B9847002010BDC046DC0B0000EB
:1005D0007D060000E909000070B504000D00002848
:1005E0000AD00800431E9841C0B277220349044B49
:1005F00098472C60002070BD0020F6E7DC0B00005F
:100600007D06000070B505000E001400431E9841E1
:10061000C0B283221649174B9847012E11D0002EE5
:1006200004D0022E18D00D20404209E0AC62621EB8
:100630009441E2B22800083001210F4B9847002076
:1006400070BD6C62621E9441E2B228000830022143
:10065000094B98470020F3E7EC62621E9441E2B236
:10066000280008300321044B98470020E8E7C046E3
:10067000DC0B00007D060000150A0000002800D1F8
:1006800000BE704770B504000E00150000280BD0A6
:10069000002918D00120002A07D128220C49002067
:1006A0000C4B98476B1E07E0002028220849094B95
:1006B00098476B1E2B4208D163600023A360E36060
:1006C0002660002070BD0020EFE70D204042F9E7D2
:1006D000FC0B00007D06000070B504000D00002832
:1006E00015D00800431E9841C0B240220A490B4B66
:1006F0009847A368E2689A420BD062681340226868
:10070000D35C2B70A3680133A360002070BD002070
:10071000EBE70A204042F9E7FC0B00007D060000F1
:1007200070B504000D00431E9841C0B251220A4921
:100730000A4B98476368E26813402268D554E3681F
:100740006168A2689A1A8A4201D9591AA1600133D4
:10075000E360002070BDC046FC0B00007D06000079
:1007600010B50400431E9841C0B267220349044BF0
:100770009847E068A368C01A10BDC046FC0B000093
:100780007D060000FA231B015843704710B5084B43
:100790005A685A60074B9847074B9847074B98474A
:1007A000074B9847FF20074B9847074B984710BDCA
:1007B000004000410D08000025080000010800006D
:1007C00065080000DD070000CD0700009022D2057B
:1007D000137802218B43137070470000C30707D5BD
:1007E000044A054B1A621900044A4B681342FCD1B3
:1007F0007047C04606010100001C0040FD070000D4
:100800000122014B1A71704700080040044BDA695D
:10081000F82149010A40DA6101221A617047C04695
:10082000001400400E4B02221A7509325A75190045
:10083000073A8B691A42FCD1094904228B691A4292
:10084000FCD10722064B9A7519000932CB681A426F
:10085000FCD0034A137D80210B4313757047C046BB
:10086000001000407047000030B589B00C4B6A465C
:1008700032CB32C232CB32C212CB12C2009B834285
:100880000BD001239A0069465258824206D00133A8
:10089000082BF7D1002009B030BD0023D8B2FAE709
:1008A000200C000010B58623DB05984207D0084BCA
:1008B000984204D0074B98470930C0B210BDBD2301
:1008C0001B069C466044800A0930C0B2F6E7C04669
:1008D000000400436908000010B504001E4B98474F
:1008E000042804D01D4A1E4900201E4B9847E36986
:1008F000DB0718D40322E3691A42FCD123689B0763
:100900000BD523680222934323600132E3691A4224
:10091000FCD10222E3691A42FCD1052323600322A1
:10092000E3691A42FCD10122E3691A42FCD10E4B61
:1009300023600322E3691A42FCD1C0239B02636057
:100940000722E3691A42FCD1084BA3810023A37359
:100950003022A354002010BD69080000610200008D
:10096000580C00007D060000040031402BF6FFFF0C
:1009700070B506000C00431E9841C0B2C422134952
:10098000134B98472000134B9847051E01D02800B1
:1009900070BDB461104B9C4214D020000F4B98479F
:1009A0000306F4D41F2318401E3B83400C4A8021C9
:1009B0005350BFF34F8FBFF36F8F0131FF3153504F
:1009C0001360E4E7074B1E60E7E7C046580C0000E1
:1009D0007D060000D908000000140042A5080000B0
:1009E00000E100E03C0000208269136802210B4313
:1009F00013600131D3691942FCD17047836989B210
:100A000019857047836901229A75704783690222AC
:100A10009A75704770B504000D001600431E98418A
:100A2000C0B2164A1649174B984702232A009A4328
:100A30000ED1A369002E05D101221A75A3690132D6
:100A40001A7570BD01229A75A36901329A75F8E78B
:100A5000012D07D0032DF4D1A369002E0BD08022E5
:100A60009A75EEE7A369002E02D104221A75E8E711
:100A700004229A75E5E780221A75E2E72102000058
:100A8000580C00007D06000010B5194B18688469E9
:100A9000237EDB0702D5A37DDB070FD4237E9B07D4
:100AA00002D5A37D9B070ED4237E5B0715D5628BF1
:100AB00037231A420CD04833638310BD01232375BA
:100AC00003689847F9E70223237583689847F4E79A
:100AD000218DC9B243689847EFE7237EDB09ECD04C
:100AE00080232376C3689847638B9BB26383E4E7D4
:100AF0003C000020024B034A5A6005221A607047EE
:100B000010E000E0FFFFFF0070B50B0E5E1EF6B2B6
:100B1000002B13D034000E4A0E4D80204002556049
:100B2000956013680342FCD0013CE4B2FF2CF6D17F
:100B30003306F61A084B9C4661447118044B596001
:100B400099601900802252020B681342FCD070BDDC
:100B500010E000E0FFFFFF00010000FF70B5054B53
:100B60009847054EFA25AD00044CB0472800A04731
:100B7000FBE7C0461D01000085020000FD020000E9
:100B800070B500260C4D0D4C641BA410A64209D173
:100B9000002600F06FF80A4D0A4C641BA410A64210
:100BA00005D170BDB300EB5898470136EEE7B300AE
:100BB000EB5898470136F2E7800C0000800C0000EB
:100BC000800C0000840C00002E2E2F68616C2F73A7
:100BD00072632F68616C5F696F2E63002E2E2F6821
:100BE000616C2F7372632F68616C5F7573617274CF
:100BF0005F6173796E632E63000000002E2E2F68F4
:100C0000616C2F7574696C732F7372632F757469BF
:100C10006C735F72696E676275666665722E6300DB
:100C20000004004200080042000C00420010004294
:100C3000001400420018004200000043000400437A
:100C400000000000000000000000000000000000A4
:100C500000000000000000002E2E2F68706C2F7323
:100C60006572636F6D2F68706C5F736572636F6D13
:100C70002E630000F8B5C046F8BC08BC9E4670471D
:100C8000E5000000F8B5C046F8BC08BC9E467047B9
:040C9000BD000000A3
:0C0C940048656C6C6F20576F726C642117
:00000001FF
