S01E00007379737469636B2D696E697469616C697A6174696F6E2E73726563E7
S113000078240020210100001D0100001D010000D2
S113001000000000000000000000000000000000DC
S11300200000000000000000000000001D010000AE
S113003000000000000000001D0100000902000093
S11300401D0100001D0100001D0100001D01000034
S11300501D0100001D0100001D0100001D01000024
S11300601D0100001D0100001D0100001D01000014
S11300701D0100001D0100001D0100001D01000004
S11300801D0100001D0100001D0100001D010000F4
S11300901D0100001D0100001D0100001D010000E4
S11300A01D0100001D0100001D0100001D010000D4
S11300B01D0100001D0100001D01000010B5064CCB
S11300C02378002B07D1054B002B02D0044800E015
S11300D000BF0123237010BD340400200000000081
S11300E014050000084B10B5002B03D0074908483D
S11300F000E000BF07480368002B00D110BD064B89
S1130100002BFBD09847F9E70000000038040020DA
S1130110140500001405000000000000FEE70000C4
S113012010B5174A174B9A4211D01A00164B9A422F
S11301300DD2164A03339B1A9B0801339B000022FD
S113014010480F498C58845004329A42FAD1104A0C
S1130150104B9A420AD2D3430E495B1803218B43B6
S113016004339B18002102C29342FCD10A4AFF21A6
S11301700A4B8B4393600A4B98470A4B9847FEE718
S113018014050000000000203404002004000020B6
S1130190340400207804002000ED00E0000000009A
S11301A04D030000F5010000014A024B1A6070473C
S11301B000093D000000002010B58223DB058022E9
S11301C012029A609A61084A00201060074B53603B
S11301D0074C236A1B021B0AC02109060B43236236
S11301E090600723136010BD10E000E09F0F000033
S11301F000ED00E010B5024B9847024B9847FEE72C
S1130200A9010000B901000010B5084B1A68501C80
S11302101860FA218900064B9847002904D18022EE
S113022012028223DB05DA6110BDC04650040020AF
S113023041030000002243088B4274D303098B421C
S11302405FD3030A8B4244D3030B8B4228D3030CA2
S11302508B420DD3FF22090212BA030C8B4202D344
S11302601212090265D0030B8B4219D300E0090A6C
S1130270C30B8B4201D3CB03C01A5241830B8B4275
S113028001D38B03C01A5241430B8B4201D34B035E
S1130290C01A5241030B8B4201D30B03C01A5241C3
S11302A0C30A8B4201D3CB02C01A5241830A8B4248
S11302B001D38B02C01A5241430A8B4201D34B0231
S11302C0C01A5241030A8B4201D30B02C01A524195
S11302D0CDD2C3098B4201D3CB01C01A5241830949
S11302E08B4201D38B01C01A524143098B4201D383
S11302F04B01C01A524103098B4201D30B01C01AAE
S11303005241C3088B4201D3CB00C01A5241830827
S11303108B4201D38B00C01A524143088B4201D354
S11303204B00C01A5241411A00D2014652411046B4
S11303307047FFE701B5002000F006F802BDC04693
S11303400029F7D076E770477047C04670B50D4E68
S11303500D4D0024AD1BAD1005D0A300F35801349E
S11303609847A542F9D100F0C3F8084E084D00247F
S1130370AD1BAD1005D0A300F35801349847A54236
S1130380F9D170BDFC040000FC040000FC04000072
S113039004050000034B10B5002B02D0024800F006
S11303A005F810BD00000000BD03000010B50100F9
S11303B000230022002000F01FF810BD70B5094B87
S11303C0094CE41AA41009D0084AA518AD00ED1888
S11303D02B68013C9847043D002CF9D100F092F8B9
S11303E070BDC0461005000014050000FFFFFF3F6C
S11303F07047C0467047C046F0B54E464546DE4697
S11304005746E0B5364D83B00600286898460F007D
S11304109146FFF7EDFF334B1C68A4235B00E058C3
S1130420002852D043681F2B13DC5A1C0192002E63
S113043028D1019A02339B0042601F502868FFF7BD
S1130440D9FF002003B03CBC90469946A246AB4677
S1130450F0BD254B002B3DD0C820400000E000BF7C
S1130460002837D0A42200235200A1584360016021
S1130470A05040328350043283500133019300234F
S1130480002ED6D09A00924682444A468821544689
S11304906250C4225200914681444A4687399940A9
S11304A012688B460A4394464A4661461160842288
S11304B041465200A150022EBBD102005C468D324F
S11304C0FF3211680C431460B3E720004D30FF3055
S11304D0E050A7E72868FFF78DFF01204042B1E70D
S11304E030040020EC04000000000000080000209C
S11304F0F8B5C046F8BC08BC9E467047950300009A
S1130500E5000000F8B5C046F8BC08BC9E4670473C
S1070510BD00000026
S113051400093D000000000000000000F402002077
S11305245C030020C403002000000000000000005D
S113053400000000000000000000000000000000B3
S113054400000000000000000000000000000000A3
S11305540000000000000000000000000000000093
S11305640000000000000000000000000000000083
S11305740000000000000000000000000000000073
S11305840000000000000000000000000000000063
S11305940000000000000000000000000000000053
S11305A40000000000000000000000000000000043
S11305B40000000000000000000000000000000033
S11305C401000000000000000E33CDAB34126DE6D0
S11305D4ECDE05000B000000000000000000000039
S11305E40000000000000000000000000000000003
S11305F400000000000000000000000000000000F3
S113060400000000000000000000000000000000E2
S113061400000000000000000000000000000000D2
S10709445404002033
S9030000FC
